:100000000C9469000C9491000C9491000C94910054
:100010000C9491000C9491000C9491000C9491001C
:100020000C9491000C9491000C9491000C9491000C
:100030000C9491000C9491000C9491000C949100FC
:100040000C9404020C9491000C9474020C944E02D3
:100050000C9491000C9491000C9491000C949100DC
:100060000C9491000C9491006B6E6F622D6E696719
:1000700068742D6C6967687420726561647900002A
:100080000000080002010000030407000000000057
:1000900000000000000000250028002B00000000E8
:1000A00000240027002A00040404040404040402B9
:1000B0000202020202030303030303010204081005
:1000C00020408001020408102001020408102000D2
:1000D000C60311241FBECFEFD8E0DEBFCDBF11E0B5
:1000E000A0E0B1E0ECEAF8E002C005900D92A63184
:1000F000B107D9F721E0A6E1B1E001C01D92AC3B08
:10010000B207E1F710E0C9E6D0E004C02197FE0194
:100110000E944E04C836D107C9F70E94A6020C946B
:1001200054040C940000E4ECF0E02491E0EBF0E0E7
:100130008491882399F090E0880F991FFC01E35681
:10014000FF4FA591B491FC01ED56FF4F859194911D
:100150008FB7F894EC91E22BEC938FBF0895E8E809
:10016000F0E02491E4ECF0E09491E0EBF0E0E49135
:10017000EE23C9F0222339F0233001F1A8F4213015
:1001800019F1223029F1F0E0EE0FFF1FED56FF4F7D
:10019000A591B4912FB7F894EC91811126C0909558
:1001A0009E239C932FBF08952730A9F02830C9F0D3
:1001B000243049F7209180002F7D03C020918000DA
:1001C0002F7720938000DFCF24B52F7724BDDBCF9E
:1001D00024B52F7DFBCF2091B0002F772093B00066
:1001E000D2CF2091B0002F7DF9CF9E2BDACFAF92E6
:1001F000BF92CF92DF92EF92FF920F931F93CF9314
:10020000DF936C017B018B01040F151FEB015E0175
:10021000AE18BF08C017D10759F06991D601ED910A
:10022000FC910190F081E02DC6010995892B79F7A9
:10023000C501DF91CF911F910F91FF90EF90DF905B
:10024000CF90BF90AF900895FC01538D448D252F22
:1002500030E0842F90E0821B930B541710F0CF9660
:10026000089501970895FC01918D828D981761F092
:10027000A28DAE0FBF2FB11D5D968C91928D9F5FA9
:100280009F73928F90E008958FEF9FEF0895FC0188
:10029000918D828D981731F0828DE80FF11D858D3B
:1002A00090E008958FEF9FEF0895FC01918D228DCE
:1002B000892F90E0805C9F4F821B91098F73992753
:1002C000089586E191E00E94550121E0892B09F40F
:1002D00020E0822F089580E090E0892B29F00E9491
:1002E000610181110C9400000895FC01A48DA80FF8
:1002F000B92FB11DA35ABF4F2C91848D90E0019668
:100300008F739927848FA689B7892C93A089B18987
:100310008C91837080648C93938D848D981306C028
:100320000288F389E02D80818F7D80830895EF928C
:10033000FF920F931F93CF93DF93EC0181E0888F9F
:100340009B8D8C8D98131AC0E889F989808185FF6F
:1003500015C09FB7F894EE89FF896083E889F98911
:1003600080818370806480839FBF81E090E0DF9113
:10037000CF911F910F91FF90EF900895F62E0B8D66
:1003800010E00F5F1F4F0F731127E02E8C8D8E1121
:100390000CC00FB607FCFACFE889F989808185FF88
:1003A000F5CFCE010E947501F1CFEB8DEC0FFD2F43
:1003B000F11DE35AFF4FF0829FB7F8940B8FEA8943
:1003C000FB8980818062CFCFCF93DF93EC01888D52
:1003D0008823B9F0AA89BB89E889F9898C9185FDC0
:1003E00003C0808186FD0DC00FB607FCF7CF8C914E
:1003F00085FFF2CF808185FFEDCFCE010E94750190
:10040000E9CFDF91CF9108951F920F920FB60F920F
:1004100011242F933F938F939F93AF93BF9380911A
:10042000B8019091B901A091BA01B091BB0130918E
:10043000B70123E0230F2D3758F50196A11DB11DFB
:100440002093B7018093B8019093B901A093BA01AA
:10045000B093BB018091B3019091B401A091B5011B
:10046000B091B6010196A11DB11D8093B301909387
:10047000B401A093B501B093B601BF91AF919F9124
:100480008F913F912F910F900FBE0F901F90189555
:1004900026E8230F0296A11DB11DD2CF1F920F9205
:1004A0000FB60F9211242F933F934F935F936F9347
:1004B0007F938F939F93AF93BF93EF93FF9386E1C7
:1004C00091E00E947501FF91EF91BF91AF919F91D3
:1004D0008F917F916F915F914F913F912F910F90ED
:1004E0000FBE0F901F9018951F920F920FB60F928C
:1004F00011242F938F939F93EF93FF93E091260105
:10050000F09127018081E0912C01F0912D0182FD75
:100510001BC0908180912F018F5F8F7320913001DC
:10052000821741F0E0912F01F0E0EA5EFE4F958FD7
:1005300080932F01FF91EF919F918F912F910F90B9
:100540000FBE0F901F9018958081F4CF789484B5DA
:10055000826084BD84B5816084BD85B5826085BDBF
:1005600085B5816085BD80916E00816080936E004D
:10057000109281008091810082608093810080913F
:1005800081008160809381008091800081608093F0
:1005900080008091B10084608093B1008091B000B0
:1005A00081608093B00080917A00846080937A00AB
:1005B00080917A00826080937A0080917A008160D5
:1005C00080937A0080917A00806880937A001092FC
:1005D000C1000E949300E0912601F091270182E082
:1005E0008083E0912201F09123011082E0912401A7
:1005F000F091250180E1808310922E01E0912A0183
:10060000F0912B0186E08083E0912801F09129018F
:10061000808180618083E0912801F09129018081AF
:1006200088608083E0912801F091290180818068B1
:100630008083E0912801F091290180818F7D808362
:10064000C8E6D0E0FE016491662339F086E191E0CE
:100650000E9497012196892BA9F742E050E062E1C0
:1006600071E086E191E00E94F70080E4982E97EF18
:10067000492E93E0592E612C712C28E8A22E20E0FF
:10068000B22E00E010E090927C0080917A008064AD
:1006900080937A0080917A0086FDFCCF20917800CB
:1006A000309179002830310524F40E94930080E0D5
:1006B0001EC0032E000C440B550B28503109410974
:1006C0005109AEEFB0E00E941204A30192010E9412
:1006D000F30369017A01FFEFCF1ADF0AEF0AFF0A7D
:1006E000E6010E949300CF3FD10521F481E00E94F2
:1006F000AF0021C0F5018491833071F140F4813065
:10070000B1F0823021F1C038D10584F7D0CF8730E5
:1007100069F1883099F18430B1F78091800080626E
:1007200080938000D0928B00C0928A0004C084B570
:10073000806884BDC7BC0115110509F4A4CF0E94CF
:100740006101882309F49FCF0E9400009CCF84B5EB
:10075000806284BDC8BCEFCF8091800080688093A8
:100760008000D0928900C0928800E5CF8091B000CF
:1007700080688093B000C092B300DDCF8091B0005C
:1007800080628093B000C092B400D5CFE6E1F1E082
:100790001382128288EE93E0A0E0B0E08483958318
:1007A000A683B78384E091E09183808385EC90E019
:1007B0009587848784EC90E09787868780EC90E02B
:1007C000918B808B81EC90E0938B828B82EC90E01C
:1007D000958B848B86EC90E0978B868B118E128E96
:1007E000138E148E0895052E97FB1EF400940E941C
:1007F0000A0457FD07D00E941D0407FC03D04EF4E5
:100800000C940A0450954095309521953F4F4F4FD9
:100810005F4F089590958095709561957F4F8F4FAC
:100820009F4F08950E943F04A59F900DB49F900D87
:10083000A49F800D911D11240895A1E21A2EAA1BD8
:10084000BB1BFD010DC0AA1FBB1FEE1FFF1FA21780
:10085000B307E407F50720F0A21BB30BE40BF50B7D
:10086000661F771F881F991F1A9469F76095709506
:10087000809590959B01AC01BD01CF010895A29F89
:10088000B001B39FC001A39F700D811D1124911D64
:10089000B29F700D811D1124911D0895EE0FFF1F51
:0C08A0000590F491E02D0994F894FFCF2E
:1008AC00000000009701F7002401E4015501330119
:0608BC0047010D0A0000D7
:00000001FF
