:100000000C9484000C94AC000C94AC000C94AC00E8
:100010000C94AC000C94AC000C94AC000C94AC00B0
:100020000C94AC000C94AC000C94AC000C94AC00A0
:100030000C94AC000C94AC000C94AC000C94AC0090
:100040000C94EA020C94AC000C945A030C94340304
:100050000C94AC000C94AC000C94AC000C94AC0070
:100060000C94AC000C94AC000000000023002600AF
:1000700029006C61756E63682D636F6E74726F6CAE
:10008000207265616479007361666564006C6966FD
:10009000746F66660061626F7274656400636F7589
:1000A0006E74646F776E0064697361726D6564006D
:1000B00061726D65640000000000240027002A00C2
:1000C00000000000250028002B00040404040404A0
:1000D00004040202020202020303030303030102F7
:1000E00004081020408001020408102001020408C6
:1000F00010200000000800020100000304070000B7
:10010000000000000000CE0411241FBECFEFD8E095
:10011000DEBFCDBF11E0A0E0B1E0EAE4FAE002C04A
:1001200005900D92A432B107D9F721E0A4E2B1E025
:1001300001C01D92A03DB207E1F710E0C4E8D0E095
:1001400004C02197FE010E941D05C338D107C9F7DD
:100150000E948C030C9423050C940000833081F0E2
:1001600028F4813099F08230A9F008958730A9F001
:100170008830C9F08430B1F4809180008F7D03C055
:10018000809180008F7780938000089584B58F7769
:1001900084BD089584B58F7DFBCF8091B0008F77AB
:1001A0008093B00008958091B0008F7DF9CF1F93A8
:1001B000CF93DF93282F30E0F901EE50FF4F849169
:1001C000F901E252FF4FD491F901E653FF4FC49178
:1001D000CC23A9F0162F81110E94AE00EC2FF0E085
:1001E000EE0FFF1FE054FF4FA591B4918FB7F89425
:1001F000EC91111108C0D095DE23DC938FBFDF9105
:10020000CF911F910895DE2BF8CFCF93DF9390E02D
:10021000FC01E252FF4F249186539F4FFC018491D1
:100220008823D1F090E0880F991FFC01EA54FF4F1A
:10023000A591B491FC01E054FF4FC591D491623077
:1002400071F49FB7F8943C91822F809583238C930F
:10025000E8812E2B28839FBFDF91CF9108958FB720
:10026000F894EC912E2B2C938FBFF6CF2FB7F894E8
:1002700060912F0170913001809131019091320194
:100280002FBF0895AF92BF92CF92DF92EF92FF926D
:100290000F931F93CF93DF936C017B018B01040FAE
:1002A000151FEB015E01AE18BF08C017D10759F04A
:1002B0006991D601ED91FC910190F081E02DC6018C
:1002C0000995892B79F7C501DF91CF911F910F9186
:1002D000FF90EF90DF90CF90BF90AF900895FC011A
:1002E000538D448D252F30E0842F90E0821B930B9B
:1002F000541710F0CF96089501970895FC01918D41
:10030000828D981761F0A28DAE0FBF2FB11D5D9643
:100310008C91928D9F5F9F73928F90E008958FEFE5
:100320009FEF0895FC01918D828D981731F0828D99
:10033000E80FF11D858D90E008958FEF9FEF0895F0
:10034000FC01918D228D892F90E0805C9F4F821B54
:1003500091098F739927089583E391E00E94A0018A
:1003600021E0892B09F420E0822F089580E090E0BD
:10037000892B29F00E94AC0181110C940000089592
:10038000FC01A48DA80FB92FB11DA35ABF4F2C910A
:10039000848D90E001968F739927848FA689B78901
:1003A0002C93A089B1898C91837080648C93938DF8
:1003B000848D981306C00288F389E02D80818F7D9B
:1003C00080830895EF92FF920F931F93CF93DF9353
:1003D000EC0181E0888F9B8D8C8D98131AC0E88981
:1003E000F989808185FF15C09FB7F894EE89FF8950
:1003F0006083E889F98980818370806480839FBFEE
:1004000081E090E0DF91CF911F910F91FF90EF90ED
:100410000895F62E0B8D10E00F5F1F4F0F731127FD
:10042000E02E8C8D8E110CC00FB607FCFACFE88938
:10043000F989808185FFF5CFCE010E94C001F1CFFF
:10044000EB8DEC0FFD2FF11DE35AFF4FF0829FB7AC
:10045000F8940B8FEA89FB8980818062CFCF0F935C
:100460001F93CF93DF938C01D0E0C0E0F801EC0F35
:10047000FD1F6491662341F083E391E00E94E20155
:10048000892B11F02196F2CF42E050E060E271E05A
:1004900083E391E00E9442018C0F9D1FDF91CF9179
:1004A0001F910F910895CF93DF93EC01888D8823DE
:1004B000B9F0AA89BB89E889F9898C9185FD03C0C7
:1004C000808186FD0DC00FB607FCF7CF8C9185FFAC
:1004D000F2CF808185FFEDCFCE010E94C001E9CF30
:1004E000DF91CF910895CF93DF93EB019093250196
:1004F000809324010E9436016093260170932701A6
:100500008093280190932901CE01DF91CF910C9423
:100510002F028F929F92AF92BF92FF920F931F93E1
:10052000CF93DF93EC01288130E0F901EE50FF4FCB
:100530008491F901E252FF4F0491F901E653FF4F14
:100540001491112309F441C081110E94AE00E12FE2
:10055000F0E0EE0FFF1FE859FF4FA591B491EC9129
:100560000E2391E080E009F490E0092F182F802FEE
:100570008170F82E89818F1539F0F9820E94360139
:100580006B837C838D839E830E9436018B809C804D
:10059000AD80BE80681979098A099B096E317105A1
:1005A00081059105A8F08A818F1591F0FA8281E08A
:1005B0000827802F8170DF91CF911F910F91FF90BD
:1005C000BF90AF909F908F90089510E000E0CFCF44
:1005D00080E0F1CF1F920F920FB60F9211242F934C
:1005E0003F938F939F93AF93BF9380912F019091EF
:1005F0003001A0913101B091320130912E0123E000
:10060000230F2D3758F50196A11DB11D20932E0102
:1006100080932F0190933001A0933101B093320168
:1006200080912A0190912B01A0912C01B0912D0174
:100630000196A11DB11D80932A0190932B01A093D7
:100640002C01B0932D01BF91AF919F918F913F915C
:100650002F910F900FBE0F901F90189526E8230F33
:100660000296A11DB11DD2CF1F920F920FB60F920D
:1006700011242F933F934F935F936F937F938F93A7
:100680009F93AF93BF93EF93FF9383E391E00E9417
:10069000C001FF91EF91BF91AF919F918F917F9199
:1006A0006F915F914F913F912F910F900FBE0F90DF
:1006B0001F9018951F920F920FB60F9211242F932F
:1006C0008F939F93EF93FF93E0914301F091440147
:1006D0008081E0914901F0914A0182FD1BC0908127
:1006E00080914C018F5F8F7320914D01821741F0F3
:1006F000E0914C01F0E0ED5CFE4F958F80934C0152
:10070000FF91EF919F918F912F910F900FBE0F90BE
:100710001F9018958081F4CF789484B5826084BD51
:1007200084B5816084BD85B5826085BD85B58160F5
:1007300085BD80916E00816080936E001092810073
:10074000809181008260809381008091810081602E
:1007500080938100809180008160809380008091EF
:10076000B10084608093B1008091B000816080937B
:10077000B00080917A00846080937A0080917A0042
:10078000826080937A0080917A00816080937A0001
:1007900080917A00806880937A001092C10062E0B4
:1007A00082E00E94050162E083E00E94050161E0B1
:1007B00084E00E94050161E085E00E94050161E09E
:1007C00086E00E94050161E088E00E940501E09159
:1007D0004301F091440182E08083E0913F01F09178
:1007E00040011082E0914101F091420180E180835B
:1007F00010924B01E0914701F091480186E080831F
:10080000E0914501F0914601808180618083E09113
:100810004501F0914601808188608083E091450127
:10082000F0914601808180688083E0914501F091DC
:10083000460180818F7D808382E790E00E942F02B5
:1008400088EE482E83E0582E612C712C00E010E0D9
:1008500087E091E00E948902C82F80E091E00E9429
:100860008902D82F0E943601C0902601D09027011E
:10087000E0902801F0902901DC01CB018C199D0941
:10088000AE09BF09209124013091250121303105A5
:1008900009F45EC008F452C02230310509F464C086
:1008A0002330310509F46FC00E9436016B017C01D1
:1008B0008090260190902701A0902801B0902901F6
:1008C000C0912401D0912501CE01019761E00297EA
:1008D00008F060E084E00E94D700C230D10581F4C6
:1008E000C701B601681979098A099B09A301920118
:1008F0000E94FB0421E0643F71408105910508F0EE
:1009000020E0622F85E00E94D700FF24F394239714
:1009100009F0F12C6F2D86E00E94D7006F2D88E042
:100920000E94D7000115110509F492CF0E94AC0175
:10093000882309F48DCF0E9400008ACF60EB70E01D
:1009400081E090E0CC2309F4AFCF0E947302ACCFDA
:1009500067EA70E0C1111FC06DE970E082E090E0CD
:10096000DD2309F4A1CFF1CF65E970E0C11113C017
:10097000883B9B40A105B10508F496CF6DE870E077
:1009800083E090E0E2CF883E9340A105B10508F4F2
:100990008BCF67E870E090E080E0D7CFE3E3F1E051
:1009A0001382128288EE93E0A0E0B0E08483958306
:1009B000A683B78382E191E09183808385EC90E008
:1009C0009587848784EC90E09787868780EC90E019
:1009D000918B808B81EC90E0938B828B82EC90E00A
:1009E000958B848B86EC90E0978B868B118E128E84
:1009F000138E148E0895A1E21A2EAA1BBB1BFD01B3
:100A00000DC0AA1FBB1FEE1FFF1FA217B307E407ED
:100A1000F50720F0A21BB30BE40BF50B661F771F45
:100A2000881F991F1A9469F7609570958095909525
:100A30009B01AC01BD01CF010895EE0FFF1F059092
:0A0A4000F491E02D0994F894FFCF23
:100A4A000301010000000002010100000000000093
:100A5A000000E20142016F015302A0017E019201EE
:040A6A000D0A000071
:00000001FF
