:100000000C9471000C9499000C9499000C94990034
:100010000C9499000C9499000C9499000C949900FC
:100020000C9499000C9499000C9499000C949900EC
:100030000C9499000C9499000C9499000C949900DC
:100040000C9422020C9499000C9492020C946C0271
:100050000C9499000C9499000C9499000C949900BC
:100060000C9499000C9499000000000024002700D3
:100070002A006D6F6F6E2D70686173652D6C616DF8
:100080007020726561647900000000002300260082
:1000900029007068617365200000000000250028B9
:1000A000002B0004040404040404040202020202FB
:1000B000020303030303030102040810204080012C
:1000C00002040810200102040810200000000800AB
:1000D000020100000304070000000000000000000F
:1000E0007A0411241FBECFEFD8E0DEBFCDBF11E0F0
:1000F000A0E0B1E0EEE5F9E002C005900D92A43277
:10010000B107D9F721E0A4E2B1E001C01D92A03D02
:10011000B207E1F710E0C1E7D0E004C02197FE018B
:100120000E94A704C037D107C9F70E94C4020C94EB
:10013000AD040C940000833081F028F4813099F0F4
:100140008230A9F008958730A9F08830C9F0843052
:10015000B1F4809180008F7D03C0809180008F7703
:1001600080938000089584B58F7784BD089584B509
:100170008F7DFBCF8091B0008F778093B000089582
:100180008091B0008F7DF9CF1F93CF93DF93282FFD
:1001900030E0F901E553FF4F8491F901E954FF4F35
:1001A000D491F901ED55FF4FC491CC23A9F0162F3E
:1001B00081110E949B00EC2FF0E0EE0FFF1FE7562D
:1001C000FF4FA591B4918FB7F894EC91111108C02D
:1001D000D095DE23DC938FBFDF91CF911F910895DF
:1001E000DE2BF8CFAF92BF92CF92DF92EF92FF92C9
:1001F0000F931F93CF93DF936C017B018B01040F4F
:10020000151FEB015E01AE18BF08C017D10759F0EA
:100210006991D601ED91FC910190F081E02DC6012C
:100220000995892B79F7C501DF91CF911F910F9126
:10023000FF90EF90DF90CF90BF90AF900895FC01BA
:10024000538D448D252F30E0842F90E0821B930B3B
:10025000541710F0CF96089501970895FC01918DE1
:10026000828D981761F0A28DAE0FBF2FB11D5D96E4
:100270008C91928D9F5F9F73928F90E008958FEF86
:100280009FEF0895FC01918D828D981731F0828D3A
:10029000E80FF11D858D90E008958FEF9FEF089591
:1002A000FC01918D228D892F90E0805C9F4F821BF5
:1002B00091098F739927089583E391E00E9450017B
:1002C00021E0892B09F420E0822F089580E090E05E
:1002D000892B29F00E945C0181110C940000089583
:1002E000FC01A48DA80FB92FB11DA35ABF4F2C91AB
:1002F000848D90E001968F739927848FA689B789A2
:100300002C93A089B1898C91837080648C93938D98
:10031000848D981306C00288F389E02D80818F7D3B
:1003200080830895EF92FF920F931F93CF93DF93F3
:10033000EC0181E0888F9B8D8C8D98131AC0E88921
:10034000F989808185FF15C09FB7F894EE89FF89F0
:100350006083E889F98980818370806480839FBF8E
:1003600081E090E0DF91CF911F910F91FF90EF908E
:100370000895F62E0B8D10E00F5F1F4F0F7311279E
:10038000E02E8C8D8E110CC00FB607FCFACFE889D9
:10039000F989808185FFF5CFCE010E947001F1CFF0
:1003A000EB8DEC0FFD2FF11DE35AFF4FF0829FB74D
:1003B000F8940B8FEA89FB8980818062CFCF0F93FD
:1003C0001F93CF93DF938C01D0E0C0E0F801EC0FD6
:1003D000FD1F6491662341F083E391E00E94920146
:1003E000892B11F02196F2CFCE01DF91CF911F9191
:1003F0000F910895CF93DF93EC01888D8823B9F096
:10040000AA89BB89E889F9898C9185FD03C080811F
:1004100086FD0DC00FB607FCF7CF8C9185FFF2CF9C
:10042000808185FFEDCFCE010E947001E9CFDF9181
:10043000CF91089542E050E060E271E083E391E003
:100440000C94F2001F920F920FB60F9211242F936B
:100450003F938F939F93AF93BF9380912F01909180
:100460003001A0913101B091320130912E0123E091
:10047000230F2D3758F50196A11DB11D20932E0194
:1004800080932F0190933001A0933101B0933201FA
:1004900080912A0190912B01A0912C01B0912D0106
:1004A0000196A11DB11D80932A0190932B01A09369
:1004B0002C01B0932D01BF91AF919F918F913F91EE
:1004C0002F910F900FBE0F901F90189526E8230FC5
:1004D0000296A11DB11DD2CF1F920F920FB60F929F
:1004E00011242F933F934F935F936F937F938F9339
:1004F0009F93AF93BF93EF93FF9383E391E00E94A9
:100500007001FF91EF91BF91AF919F918F917F917A
:100510006F915F914F913F912F910F900FBE0F9070
:100520001F9018951F920F920FB60F9211242F93C0
:100530008F939F93EF93FF93E0914301F0914401D8
:100540008081E0914901F0914A0182FD1BC09081B8
:1005500080914C018F5F8F7320914D01821741F084
:10056000E0914C01F0E0ED5CFE4F958F80934C01E3
:10057000FF91EF919F918F912F910F900FBE0F9050
:100580001F9018958081F4CFCF93DF93CDB7DEB75E
:10059000A1970FB6F894DEBF0FBECDBF789484B597
:1005A000826084BD84B5816084BD85B5826085BD6F
:1005B00085B5816085BD80916E00816080936E00FD
:1005C00010928100809181008260809381008091EF
:1005D00081008160809381008091800081608093A0
:1005E00080008091B10084608093B1008091B00060
:1005F00081608093B00080917A00846080937A005B
:1006000080917A00826080937A0080917A00816084
:1006100080937A0080917A00806880937A001092AB
:10062000C100E8E1EE2EE1E0FE2E04E111E0F80168
:1006300081918F01282F30E0F901E954FF4F949107
:100640002D553F4FF9012491222399F030E0220FDC
:10065000331FF901E859FF4FA591B491F901E7560D
:10066000FF4F259134912FB7F894EC919E2B9C93DA
:100670002FBF60E00E94C400E016F106C1F659EBFE
:10068000452E50E0552EF201249165EA662E60E079
:10069000762EF30184918823C9F090E0880F991F8A
:1006A000FC01E859FF4FA591B491FC01E756FF4FBB
:1006B000459154913FB7F8948C91922F909598233F
:1006C0009C93FA018081822B80833FBFE09143019C
:1006D000F091440182E08083E0913F01F09140017C
:1006E0001082E0914101F091420180E180831092FB
:1006F0004B01E0914701F091480186E08083E09151
:100700004501F0914601808180618083E09145013F
:10071000F0914601808188608083E0914501F091ED
:100720004601808180688083E0914501F091460117
:1007300080818F7D808382E790E00E94DF010E94AC
:100740001A022DEC222E20E0322E6E01F0E2CF0EA6
:10075000D11C30E0832E30E0932EF1018491F20120
:100760001491F3010491002309F4BBC081110E948C
:100770009B00E02FF0E0EE0FFF1FE857FF4FA59121
:10078000B4918C91182331E020E009F430E0832FFC
:10079000922F282F2170309101012317A9F0209367
:1007A00001013FB7F89440912F01509130016091C1
:1007B0003101709132013FBF4093260150932701D0
:1007C00060932801709329013FB7F89440912F015D
:1007D0005091300160913101709132013FBFE09042
:1007E0002601F090270100912801109129014E194E
:1007F0005F09600B710B4E3151056105710538F1D0
:1008000030910001231719F120930001892BF9F48D
:100810000091250110E00F5F1F4F07701127009313
:10082000250182E990E00E94DF0119A2005D08A382
:10083000F60101900020E9F73197AF014C195D09ED
:10084000B60183E391E00E94F2000E941A02F0E4F4
:10085000F0937C0080917A00806480937A0080918C
:100860007A0086FDFCCF80917800909179002091EC
:100870002401211139C08C3291401CF481E0809315
:10088000240180912401E12C882331F0E09125019D
:10089000F0E0E85EFE4FE08084E1A82E81E0B82E13
:1008A00010E000E0F12CB701002E02C075956795AD
:1008B0000A94E2F76170F50181915F010E94C40022
:1008C0000F5F1F4F0430110571F78114910409F473
:1008D00044CF0E945C01882309F43FCF0E940000AE
:1008E0003CCF90E080E055CF8535914054F2109296
:1008F0002401C7CFE3E3F1E01382128288EE93E094
:10090000A0E0B0E084839583A683B78386E091E07E
:100910009183808385EC90E09587848784EC90E0D8
:100920009787868780EC90E0918B808B81EC90E0BC
:10093000938B828B82EC90E0958B848B86EC90E09D
:10094000978B868B118E128E138E148E0895EE0F58
:0E095000FF1F0590F491E02D0994F894FFCF5D
:10095E000101000000009201F2001F01FA01500196
:10096E002E0142010304050600080C0E0F070301B9
:04097E000D0A00005E
:00000001FF
